:020000040000fa
:080000000002040000000000f2
:020000040000fa
:100400008f8420000edf20000e0188000000000015
:100410000c000700a0672200010020001100070067
:10042000000020000000e000020032000000020096
:100430000000000076090200000000000040da0021
:100440000000fe004440a900206c20000000e000f5
:100450000300320000002000a00188004440a800f2
:100460000000060091018800800078000000eb0089
:1004700015003700e280400032a0b4009101ba00bc
:10048000e280400032a0b4009102ba00e280400055
:1004900032a0b4000002eb00472bde00f507b200eb
:1004a000602ce10004003a000059eb008301e900f0
:1004b000fdff3e00040037006128e100010032002a
:1004c0000082eb00040007001101ba000200e00006
:1004d000e8ff3a00000006003159ba008301e90044
:1004e0000c0032002159ba008301e90008003200f3
:1004f0000400e00003003a00e280400032a0b400b3
:10050000f5ff370011d9ba008301e900faff3a007c
:100510008100e800e180400032a0b4000000060045
:100520000040da000000fe006022b8000602200051
:100530000000d0008180d2000482d2008582d200e7
:100540000000a0000202520083825a000300310022
:100550000202420083824a000000a1000603e90073
:08056000f3ff3a000000060061
:020000040000fa
:0200000401f009
:04000000ffff0000fe
:020000040000fa
:0200000401f009
:04000800ffff0000f6
:020000040000fa
:0200000401f009
:04000c007fff000072
:020000040000fa
:0200000401f009
:0400100053ff00009a
:020000040000fa
:0200000401f009
:040014007fff00006a
:020000040000fa
:0200000401f009
:0400180097ff00004e
:020000040000fa
:0200000401f009
:04001c00fdff0000e4
:020000040000fa
:0200000401f009
:040020006fff00006e
:020000040000fa
:1000080090020000900200009002000090020000a0
:100018009002000090020000900200009002000090
:100028004a0f00009002000090020000820f0000ba
:10003800900200009002000090020000360f0000bd
:100048009002000090020000900200009002000060
:100058009002000090020000900200009002000050
:10006800900200009002000090020000660f00005d
:100078009002000090020000900200009002000030
:100088009002000090020000900200009002000020
:100098009002000090020000900200009002000010
:1000a8009002000090020000900200009002000000
:1000b80090020000900200009002000090020000f0
:1000c80090020000900200009002000090020000e0
:1000d80090020000900200009002000090020000d0
:1000e80090020000900200009002000090020000c0
:1000f80090020000900200009002000090020000b0
:10010800900200009002000090020000900200009f
:100118009002000090020000fa0e00009002000019
:10012800900200009002000090020000900200007f
:10013800900200009002000090020000900200006f
:10014800900200009002000090020000900200005f
:10015800900200009002000090020000900200004f
:10016800900200009002000090020000900200003f
:10017800900200009002000090020000900200002f
:10018800900200009002000090020000900200001f
:10019800900200009002000090020000900200000f
:1001a80090020000900200009002000090020000ff
:1001b80090020000900200009002000090020000ef
:1001c80090020000900200009002000090020000df
:1001d80090020000900200009002000090020000cf
:1001e80090020000900200009002000090020000bf
:0801f8009002000090020000db
:020000040000fa
:10020800900200009002000090020000900200009e
:10021800900200009002000090020000900200008e
:100228004a0f00009002000090020000820f0000b8
:10023800900200009002000090020000360f0000bb
:10024800900200009002000090020000900200005e
:10025800900200009002000090020000900200004e
:10026800900200009002000090020000660f00005b
:10027800900200009002000090020000900200002e
:10028800900200009002000090020000900200001e
:10029800900200009002000090020000900200000e
:1002a80090020000900200009002000090020000fe
:1002b80090020000900200009002000090020000ee
:1002c80090020000900200009002000090020000de
:1002d80090020000900200009002000090020000ce
:1002e80090020000900200009002000090020000be
:1002f80090020000900200009002000090020000ae
:10030800900200009002000090020000900200009d
:100318009002000090020000fa0e00009002000017
:10032800900200009002000090020000900200007d
:10033800900200009002000090020000900200006d
:10034800900200009002000090020000900200005d
:10035800900200009002000090020000900200004d
:10036800900200009002000090020000900200003d
:10037800900200009002000090020000900200002d
:10038800900200009002000090020000900200001d
:10039800900200009002000090020000900200000d
:1003a80090020000900200009002000090020000fd
:1003b80090020000900200009002000090020000ed
:1003c80090020000900200009002000090020000dd
:1003d80090020000900200009002000090020000cd
:1003e80090020000900200009002000090020000bd
:0803f8009002000090020000d9
:020000040000fa
:100568004375000072720000656e00007420000080
:100578004c5000004d4f0000444500003a20000058
:10058800536c000065650000700d00000a00000053
:100598004375000072720000656e00007420000050
:1005a8004c5000004d4f0000444500003a20000028
:1005b8004465000065700000536c0000656500002c
:1005c800700d00000a000000437500007272000000
:1005d800656e0000742000004c5000004d4f000074
:1005e800444500003a200000496400006c650000a2
:1005f8000d0a0000004300007572000072650000db
:100608006e74000020530000656e0000736f0000d8
:10061800723a000020540000656d0000706500000b
:100628007261000074750000726500000d0a000018
:100638000043000075720000726500006e740000cf
:1006480020530000656e0000736f0000723a0000ce
:10065800205000004f540000205600006f6c00002e
:1006680074610000676500000d0a00000043000087
:1006780075720000726500006e740000205300005f
:10068800656e0000736f0000723a0000205400008d
:10069800656d0000706500007261000074750000ef
:1006a800726500002c20000056440000442c000015
:1006b800206100006e640000205000004f540000cc
:1006c800205600006f6c0000746100006765000030
:1006d8000d0a0000000d00000a0000004368000039
:1006e800616e0000676900006e67000020730000fb
:1006f800656e0000736f000072200000746f0000c8
:1007080020540000656d00007065000072610000f3
:10071800747500007265000020200000200d0000a4
:100728000a00000043680000616e0000676900006d
:100738006e67000020730000656e0000736f000094
:1007480072200000746f0000205000004f54000019
:10075800205600006f6c000074610000676500009f
:1007680020200000200d00000a000000436800005f
:10077800616e0000676900006e670000207300006a
:10078800656e0000736f000072200000746f000037
:1007980020540000656d0000706500007261000063
:1007a80074750000726500002c200000564400009b
:1007b800442c0000206100006e64000020500000fe
:1007c8004f540000205600006f6c00007461000058
:1007d800676500000d0a0000004300006861000022
:1007e8006e670000696e0000672000006c6f0000f3
:1007f80077200000706f000077650000722000000d
:100808006d6f000064650000207400006f20000018
:10081800536c000065650000702e00000d0a000092
:1008280000430000686100006e670000696e000008
:10083800672000006c6f000077200000706f0000d8
:1008480077650000722000006d6f0000646500008d
:10085800207400006f2000004465000065700000ef
:10086800205300006c650000657000002e0d00002c
:100878000a00000043680000616e0000676900001c
:100888006e670000206c00006f7700002070000089
:100898006f77000065720000206d00006f64000033
:1008a80065200000746f000020490000646c00009f
:1008b800652e00000d0a000000430000757200005c
:1008c800726500006e74000020440000617400002e
:1008d800612e00002e2e000000410000646400001c
:1008e800723a000020300000780000002f3200002b
:1008f80030000000504f000054200000566f0000e8
:100908006c74000061670000653a00002000000078
:100918005644000044200000566f00006c7400002c
:1009280061670000653a000020000000546500007f
:100938006d7000003a200000005400006f75000040
:10094800636800003a200000004300006170000066
:10095800207400006f7500006368000020620000ca
:1009680075740000746f00006e20000031200000d4
:100978007072000065730000736500006420000059
:100988000043000061700000207400006f750000d3
:10099800636800002062000075740000746f000036
:1009a8006e20000031200000756e0000707200009b
:1009b80065730000736500006420000000430000b8
:1009c80061700000207400006f750000636800000b
:1009d8002062000075740000746f00006e20000033
:1009e800332000007072000065730000736500001a
:1009f80064200000004300006170000020740000c3
:100a08006f750000636800002062000075740000c4
:100a1800746f00006e20000033200000756e000027
:100a280070720000657300007365000064200000a8
:100a38000043000061700000207400006f75000022
:100a4800636800002062000075740000746f000085
:100a58006e200000322000007072000065730000f4
:100a6800736500006420000000430000617000000e
:100a7800207400006f7500006368000020620000a9
:100a880075740000746f00006e20000032200000b2
:100a9800756e0000707200006573000073650000d9
:100aa8006420000000450000727200006f720000b0
:100ab8003a200000556e00006b6e00006f77000052
:100ac8006e20000044610000746100002e000000e8
:100ad8002c0000000d0a000000570000616b0000a8
:100ae80065200000667200006f6d00002044000061
:100af8006565000070200000536c0000656500000b
:100b0800702e00002e2e000000200000204900005a
:100b18004e540000300d00000a00000020200000a4
:100b280044530000464c0000540d00000a00000029
:100b38002020000044530000574400005454000093
:100b48000d0a00000020000020520000544300005d
:100b5800430d00000a000000202000004d43000063
:100b68004c5200000d0a0000002000002050000038
:100b78004f5200000d0a0000004d0000696300009c
:100b8800726f000063680000697000002054000064
:100b980065630000686e00006f6c00006f670000fe
:100ba80079200000496e0000632e00002e2e000000
:100bb8002e2e00002e6e0000616e00006f570000a0
:100bc8006174000074200000584c000050200000a0
:100bd800626f000061720000642000000d0a0000ce
:100be800004300006c690000636b000020530000a4
:100bf800323a0000204600006f7200006365000072
:100c08007320000061200000536100006d70000037
:100c18006c650000207400006f2000006265000011
:100c280020740000616b0000656e00002062000007
:100c38006173000065640000206f00006e200000f2
:100c4800746800006520000063750000727200007f
:100c5800656e0000746c0000792000007365000068
:100c68006e7300006f720000200d00000a00000083
:100c7800436c0000696300006b20000053330000e0
:100c88003a200000546f0000676700006c650000a0
:100c9800732000005541000052540000206f0000ee
:100ca8006e2f00006f660000662e0000204f0000c7
:100cb8007574000070750000742000006f660000f5
:100cc800206400006174000061200000616e000073
:100cd800642000007468000065200000637500004f
:100ce80072720000656e00007420000064650000e8
:100cf80076690000636500002073000074610000dd
:100d080074650000200d00000a000000486f000014
:100d18006c64000020530000322000006f76000051
:100d28006572000020320000207300006563000037
:100d38003a200000737700006974000063680000bf
:100d48006573000020730000656e0000736f00007b
:100d58007220000074790000706500000d0a000020
:100d6800004800006f6c000064200000533300004e
:100d7800206f00007665000072200000322000001d
:100d880073650000633a0000207300007769000073
:100d98007463000068650000732000006c6f000039
:100da80077200000706f0000776500007220000057
:100db8006d6f000064650000200d00000a0000004f
:100dc800486f00006c6400002053000032200000cf
:100dd8006f6e0000207200006573000065740000eb
:100de800207400006f200000636c00006561000043
:100df80072200000525400004343000020610000ac
:100e08006e6400002045000045500000524f00006d
:100e18004d2000006461000074610000200d000096
:100e28000a000000486f00006c64000020530000b6
:100e3800332000006f6e0000207200006573000010
:100e480065740000207400006f20000074720000b8
:100e5800616e0000736d000069740000206c000072
:100e68006f6700006765000064200000646100008f
:100e780074610000207400006f20000050430000df
:100e8800200d00000a0000004d4300004c520000f5
:100e9800207200006573000065740000206f000078
:100ea800636300007572000072650000642e000024
:100eb8000d0a00000d0a0000002a00002a2a00007e
:100ec80044610000746100006c6f0000672000003e
:100ed8007265000073650000742100002a2a000072
:100ee8002a0a00000d00000054720000616e000024
:100ef800736d000069740000746900006e6700007b
:100f08002064000061740000616c00006f670000dd
:100f18003a0a00000d0000004461000074610000fe
:100f28006c6f00006720000054720000616e0000c2
:100f3800736d000069740000206400006f6e00008b
:100f4800652100000a0d000000570000616b0000d9
:100f580065200000667200006f6d000020520000de
:100f680054430000430d00000a00000053740000c1
:100f78006f720000696e0000672000004461000085
:100f8800746100002e2e00002e0d00000a000000e3
:100f98005265000061640000696e0000672e000061
:100fa8002e2e00000041000064640000723a000028
:100fb80020300000780000002f32000030000000d0
:100fc800504f000054200000566f00006c74000061
:100fd80061670000653a00002000000056440000e8
:100fe80044200000566f00006c7400006167000028
:100ff800653a000020000000546500006d70000094
:101008003a200000005400006f750000636800007b
:101018003a200000004300006170000020740000c6
:101028006f7500006368000020620000757400009e
:10103800746f00006e200000312000007072000004
:101048006573000073650000642000000043000021
:1010580061700000207400006f7500006368000074
:101068002062000075740000746f00006e2000009c
:1010780031200000756e000070720000657300007a
:1010880073650000642000000043000061700000e8
:10109800207400006f750000636800002062000083
:1010a80075740000746f00006e200000332000008b
:1010b8007072000065730000736500006420000012
:1010c8000043000061700000207400006f7500008c
:1010d800636800002062000075740000746f0000ef
:1010e8006e20000033200000756e00007072000052
:1010f8006573000073650000642000000043000071
:1011080061700000207400006f75000063680000c3
:101118002062000075740000746f00006e200000eb
:1011280032200000707200006573000073650000d3
:10113800642000000043000061700000207400007b
:101148006f7500006368000020620000757400007d
:10115800746f00006e20000032200000756e0000e1
:101168007072000065730000736500006420000061
:10117800004e00006f2000006275000074740000cb
:101188006f6e00002070000072650000737300002d
:101198006564000020000000556e00006b6e0000c2
:1011a8006f7700006e3a00002030000078000000e1
:1011b800576100006b65000020660000726f000038
:1011c8006d200000535700003220000070720000ac
:1011d80065730000730a00000d00000057610000ed
:1011e8006b65000020660000726f00006d20000033
:1011f8005357000033200000707200006573000030
:10120800730a00000d00000054720000616e0000b7
:10121800736d000069740000746900006e67000057
:101228002064000061740000616c00006f670000ba
:101238003a0a00000d0000004461000074610000db
:101248006c6f00006720000054720000616e00009f
:10125800736d000069740000206400006f6e000068
:10126800652100000a0d00000055000041520000f1
:101278005420000044490000535000004c41000035
:1012880059200000456e0000616200006c65000096
:10129800642e00000a0d00000000000054610000e8
:1012a8006b6900006e67000020530000616d00004c
:1012b800706c0000652e00002e2e00000d0a000044
:1012c80000000000303100003233000034350000e7
:1012d800363700003839000041420000434400001e
:0412e8004546000077
:020000040000fa
:1012ec001c00fa005a010700740107009401070062
:1012fc00401f20008f0207000d030700401f200035
:10130c008c020700db00070010010700ee0007004d
:10131c006a004700200798007000470010079800eb
:10132c00760f47000602a800170307000000eb0029
:10133c003007980019003700c003200010108800f7
:10134c00110307003e00900063004000101088005d
:10135c000d0307000622a8000b030700d003200092
:10136c0010108800080307000662a8000603070097
:10137c003e009000800078002e009000808040009d
:10138c0000108000804878000622a800fe020700aa
:10139c003e0090000000e800300798003e009000ee
:1013ac00e50f5000e4ff34000642a800f6020700e7
:1013bc000602a800f40207000000eb0030079800ba
:1013cc0019003700000d200010108800ee020700f5
:1013dc003e0090008002b00010108800ea02070066
:1013ec000622a800e8020700100d2000101088004b
:1013fc00e50207000662a800e30207003e00900029
:10140c00800078001e00900080804000001080005a
:10141c00804878000622a800db0207003e009000fe
:10142c000000e800300798003e009000e50f5000e7
:10143c00e4ff34000642a800d30207000602a8000d
:10144c00d10207000000eb003007980017003700ae
:10145c008003200010108800cb0207003e00900093
:10146c000000e80010108800c70207000622a80040
:10147c00c50207009003200010108800c20207006c
:10148c000662a800c00207003e0090009e004000cb
:10149c0000108000804878000622a800ba020700dd
:1014ac003e0090000000e800300798003e009000dd
:1014bc00e50f5000e6ff34000642a800b202070018
:1014cc0070c7a900d30a07001e00780010407800ee
:1014dc000080fb00370b07001e00e800104078006e
:1014ec000080fb00330b0700c0562800e10a070000
:1014fc001e80e800104078000080fb002d0b0700d8
:10150c009e00780063804000104078000080fb0053
:10151c00280b0700c0562800d60a07009e0078004a
:10152c0064804000104078000080fb00210b070015
:10153c009e00780065804000104078000080fb0021
:10154c001c0b0700c0562800ca0a07002e0090008a
:10155c00104078000080fb00160b07002e00900056
:10156c000000e800104078000080fb00110b070021
:10157c00c0562800bf0a07002e0090000080e8002b
:10158c00104078000080fb000a0b07002e00900032
:10159c0063004000104078000080fb00050b070042
:1015ac00c0562800b30a07002e00900064004000cb
:1015bc00104078000080fb00fe0a07002e0090000f
:1015cc0065004000104078000080fb00f90a07001d
:1015dc00c0562800a70a07001e0090000000e80073
:1015ec00104078000080fb00f20a07001e009000fb
:1015fc00104078000080fb00ee0a0700c05628005f
:10160c009c0a07001e009000630040001040780008
:10161c000080fb00e70a07001e0090000080e80035
:10162c00104078000080fb00e20a0700c05628003a
:10163c00900a07001e0090006500400010407800e2
:10164c000080fb00db0a07001e00900064004000d5
:10165c00104078000080fb00d60a0700e0562800f6
:10166c00840a070070c7a80040062000b1010700db
:10167c002cff37000000fa00f1c7b30000c2b30022
:10168c006000070001c2b30010c2b3005d00070088
:10169c008040eb0020c2b3005a00070001c1b30028
:1016ac0030c2b300570007008040eb0040c2b300cb
:1016bc00540007008040eb00e0c2b300510007006b
:1016cc000080fa00000006000000fa008040eb00e9
:1016dc0090c0b300380007008040eb00a0c0b300fe
:1016ec003500070021c0b300e0c0b3003200070092
:1016fc0081c7b30050c1b3002f0007008040eb003e
:10170c0070c1b3002c00070011c0b300a0c2b3001d
:10171c002900070021c0b300b0c2b30026000700a7
:10172c008040eb00c0c2b300230007008040eb00f8
:10173c00d0c2b300200007008040eb00e0c2b30031
:10174c001d0007000080fa00000006000000fa00ef
:10175c000602a8000c020700c0032000101088002d
:10176c00090207000000eb001010880006020700b9
:10177c008001200010108800030207000622a80038
:10178c0001020700c003200010108800fe010700b2
:10179c002000200010108800fb0107000000eb0067
:1017ac0010108800f80107000642a800f601070097
:1017bc000080fa00000006000200fa00004f7800da
:1017cc00114798000602a800ef01070080032000d3
:1017dc0010108800ec0107001e80fb001010880020
:1017ec00e90107001e4090000080fb0010108800eb
:1017fc00e50107000642a800e30107000080fa009b
:10180c00000006000200fa00004f78001147980013
:10181c000602a800dc010700000d20001010880053
:10182c00d90107001e80fb0010108800d6010700ac
:10183c001e4090000080fb0010108800d2010700b1
:10184c000642a800d00107000080fa000000060044
:10185c000000fa000000eb00201688000000eb00ee
:10186c00601688000000eb00001688000000eb00fa
:10187c00401688000080eb00601988002d83a900b9
:10188c002c23a900c982a800c022a800c842a90024
:10189c00c022a800c982a800c902a800c922a800b9
:1018ac00c902a800c9e2a800cc02a900c802a9007c
:1018bc00c822a8000080fa00000006000000fa0010
:1018cc000080eb00803b88000080eb00903b8800a0
:1018dc00f0df2f00a03b88000080eb00b03b8800bd
:1018ec00517420009140780080cfb30000c060009c
:1018fc0045e7b700103a8000000178000210a00004
:10190c0061042000700520002374200081497800b8
:10191c00804978008249780042c0bf007f40600057
:10192c0001c4b3000140700042e0b7000040eb007e
:10193c0030e8b7003068a8000080fa00000006000c
:10194c000600fa0041c7bf00644060000004e000dc
:10195c0055003200e03a8000d0418800f03a800017
:10196c00000f78001e4090000080fb007041880042
:10197c001e40780030e8b7004147a9005807a9007d
:10198c0030c8bf00684060000004e0000400320072
:10199c0070c7a9009f09070010572800b509070058
:1019ac0020c0b300860607005bc7bf006140600023
:1019bc000004e0000700320030c8bf00684060003f
:1019cc000004e0000200320090582800a90907002a
:1019dc0030a8a8005ac7bf0001c8b300014060007e
:1019ec000004e0000600320030c8bf006840600010
:1019fc000004e00002003200205928009d09070075
:101a0c005ac7bf00704060000004e00006003200be
:101a1c0030c8bf00684060000004e00002003200e3
:101a2c00c0592800930907005ac7bf0068406000de
:101a3c000004e0000700320030c8bf0068406000be
:101a4c000004e00002003200705a280089090700e7
:101a5c003048a8005ac7bf00644060000004e00092
:101a6c000600320030c8bf00684060000004e0008f
:101a7c0002003200005b28007e0907005ac7bf0035
:101a8c00614060000004e0007e00320030c8bf00fe
:101a9c00684060000004e0007a003200905b28008f
:101aac00740907007700370040c7bf006140600031
:101abc000004e000150032001406070030c8bf0017
:101acc00684060000004e0001000320070c7a900fc
:101adc0050090700105c280066090700505f2800b9
:101aec0064090700c063280062090700a068280089
:101afc0060090700506b28005e090700406e280043
:101b0c005c090700607128005a09070040c7bf0034
:101b1c0001c8b300014060000004e0000a0032007c
:101b2c0030c8bf00684060000004e00006003200ce
:101b3c0070c7a90037090700100020007d000700be
:101b4c00807428004b090700c8e2a8006ae0a800ce
:101b5c00c9c2a8006980a800500020004c000700f2
:101b6c00cac2bf0001c8b300014060000004e0001d
:101b7c000e003a006ae0a9006980a900000120006b
:101b8c00d04188004906070030c8bf00684060009b
:101b9c000004e0003100320070c7a9001d090700e5
:101bac0010762800330907002c003700cbc2bf0089
:101bbc000044b2000004e00019003a006ae0a900f9
:101bcc006980a900da000700b6010700d041800047
:101bdc00f00f500004003600d0418000700050001f
:101bec002007980002003700000120002007980011
:101bfc002e009000c601070070c7a9000509070058
:101c0c00807728001b090700d141800000012000cb
:101c1c007002070000792800160907000f00370032
:101c2c006ae0a9006980a900c10007009d010700b6
:101c3c00d0418000f00f500004003600d0418000ed
:101c4c0070005000100798000200370000012000bf
:101c5c00100798001e009000ad01070020c0b300d3
:101c6c00d705070010002000704188003008a9003b
:101c7c003028a8003048a8003088a8000000eb00ed
:101c8c00003a880070c7a8000080fa000000060027
:101c9c000200fa00000f78007187a9000000eb0029
:101cac00300888001e007800cf80de004209dd007d
:101cbc00ce00de00810071004200dd00600888006b
:101ccc0094e0a80084e0a900710a200091407800fb
:101cdc00f0c8b30000c060000044a000a7e0b7004b
:101cec0042c0bf007f40600001c4b30001407000df
:101cfc0042e0b7000000280080088800010037008f
:101d0c000140fe0084c0bf0001c8b3000140600068
:101d1c000004e000faff320084e0a90094e0a9007e
:101d2c000000eb00800888007187a8000080fa0092
:101d3c00000006000200fa00000f78007187a9006d
:101d4c000000eb00800888000000eb0030088800e1
:101d5c001e0078006103b90086007800e0032000c3
:101d6c000009b8006030b90003027800000242009c
:101d7c00e003200000b8b9000002420084017800a2
:101d8c00020078006008880084e0a900710a200035
:101d9c0091407800f0c8b30000c060000044a0007f
:101dac00a7e0b70094e0a800000228008008880093
:101dbc00010037000140fe0084c0bf0001c8b30021
:101dcc00014060000004e000faff320084e0a9004a
:101ddc0094e0a9000000eb00800888007187a8003f
:101dec000080fa000000060000a0fe003600f8009b
:101dfc00849fbe00869fbe003400f80004002000c3
:101e0c00a40188000000fa008bc0a9009bc0a900a7
:101e1c0030c8bf00684060000004e00007003200da
:101e2c0070c7a9007b0807005000200098ff07002e
:101e3c00907a28008f08070070c7a80030e8a80027
:101e4c003048a8000080fa003400f9004f03be00af
:101e5c004f02be003600f9000080fe000040060074
:101e6c003400f800881f780008002000a8018800c2
:101e7c004f0478000000fa0084e0a9000080fa000a
:101e8c003400f9000040060000a0fe003400f80009
:101e9c00881f780008002000a80188004f047800f3
:101eac000000fa008400a9009bc0a90030a8a8007b
:101ebc000080fa003400f9000080fe0000400600ab
:101ecc0000a0fe003400f800881f780008002000f5
:101edc00a80188004f0478000000fa008660a90071
:101eec009bc0a90030a8a8000080fa003400f900bb
:101efc000080fe000040060000a0fe003400f80048
:101f0c00881f780008002000a80188004f04780082
:101f1c000000fa008460a9009bc0a90030c8a8008a
:101f2c000080fa003400f9000080fe00004006003a
:101f3c000000fa0070e7a9007187a90000002800d2
:101f4c00301088009000200020108800c10a20006a
:101f5c0091407800f0c8b30000c060000044a000bd
:101f6c00ace0b7000080fa00000006000000fa00a8
:101f7c000000eb003010880070e7a8007187a80003
:101f8c000080fa00000006000200fa008620a9007a
:101f9c009620a8001c000700010037000140fe003d
:101fac0084c0bf0001c8b300014060000004e00021
:101fbc0004003a0086c0bf00624060000004e000ec
:101fcc00f6ff3200220007009620a9008620a90007
:101fdc0084c0bf0001c8b300014060000004e000f1
:101fec000400320084e0a9000080eb00000f7800b0
:101ffc00020037000000eb00000f78001e00780094
:10200c000080fa00000006000000fa007187a900a9
:10201c000000eb00300888000080eb0060088800ae
:10202c0084e0a900710a200091407800f0c8b30048
:10203c0000c060000044a000a7e0b70094e0a80036
:10204c0000002800800888000080fa0000000600cc
:10205c000000fa000000eb008008880094e0a90062
:10206c0084e0a9000080fa00000006000a00fa00d3
:10207c002007980031079800024f98000602a8002c
:10208c00c1ff0700004f7800000a200010108800e4
:10209c00bdff0700004f78002e0090004800de00c6
:1020ac0010108800b8ff0700004f78002e00900039
:1020bc0010108800b4ff0700004f78000000eb0000
:1020cc0010079800170037001e0090000000e00079
:1020dc000800340009c2bf0001c8b3000140600011
:1020ec000004e000030032001e0090000000e90034
:1020fc00100798001e009000800078003e009000b1
:10210c0000804000104078000080fb001010880018
:10211c009dff0700004f78001e0090000000e800b3
:10212c00100798000e4890008080fb001e00900065
:10213c00808f5000e4ff3c000642a80092ff07008d
:10214c00004f78000000eb000080fa000000060051
:10215c000800fa00100798002107980062479800c1
:10216c000602a80088ff0700000a20001010880053
:10217c0085ff07001e0090004800de00101088004c
:10218c0081ff07001e009000101088007eff0700e2
:10219c000622a8007cff0700100a200010108800ff
:1021ac0079ff07000000eb00000f780013003700e8
:1021bc000662a80074ff07001e00780080007800fb
:1021cc002e00900080804000001080008048780035
:1021dc006e4090000080fb000000e9009e0f500054
:1021ec0002003a0006a2a8000100370006a2a900ce
:1021fc000682a80064ff07001e0fe8006e409000e6
:10220c000080fb009e0f5000e9ff3c000642a80036
:10221c005dff07000000eb000080fa0000000600e4
:10222c000200fa000602a80057ff0700000a20006f
:10223c001010880054ff070009c2bf000080fb008b
:10224c004700de00004f78000642a8004eff070052
:10225c001e80fb000080fa00000006000200fa005d
:10226c00d0418000004f7800d04180004800de0053
:10227c001047980022c0b3008e0078000000eb00dd
:10228c007aff070002003700803e200080fe070026
:10229c00e3ff07000004e000fbff3a000080fa00b7
:1022ac00000006000400fa000e8fe80022c0b30004
:1022bc009e0078000000eb00a5ff07000e80e800f0
:1022cc00104078008080fb000e80e80010409000e9
:1022dc000080fb004800dd008080400000ff2f00e4
:1022ec0000806000d0418800d0418000ef0f50008a
:1022fc0003003600d04180000000e00002003d00e9
:10230c0000012000d04188000080fa000000060087
:10231c000c00fa00500798000e8fe80072c0b30052
:10232c009e0078005e00900089ff07001e00780078
:10233c009040780020832000014878001e0fe800b0
:10234c001e007800904078002083200031409800d7
:10235c001e0fe8001e0078009040780020832000bb
:10236c00214098001e0fe8001e0078009040780075
:10237c0020832000514098001e0fe8001e007800ba
:10238c009040780020832000414098001e0fe80008
:10239c001e00780090407800208320007140980047
:1023ac001e0fe8001e00780090407800208320006b
:1023bc00614098001e0fe800110407000080fa002d
:1023cc00000006001800fa00100f9800210f98006a
:1023dc00625798000e8fe80022040700208320002b
:1023ec00904078001e007800014878001e0fe8002d
:1023fc0020832000b04090001e0078000148780037
:10240c001e0fe80020832000a04090001e007800e2
:10241c00014878001e0fe80020832000d040900077
:10242c001e007800014878001e0fe8002083200071
:10243c00c04090001e007800014878001e0fe80094
:10244c0020832000f04090001e00780001487800a6
:10245c001e0fe80020832000e04090001e00780052
:10246c00014878001e0fe8001e007800ee50900026
:10247c00014878001e0fe8002e0890004800de008e
:10248c00804078001e007800014878001e0fe8009c
:10249c002e089000804078001e00780001487800db
:1024ac001e0fe8008e80e800a2c0b3001e0890004a
:1024bc00eefe070002003700803e2000f4fd07000e
:1024cc0057ff07000004e000fbff3a00d0418000fa
:1024dc0070004000d0418800d04180000000e00036
:1024ec0002003d0000012000d04188005bff070086
:1024fc000080fa00000006000200fa0030c8bf009d
:10250c00684060000004e0000500320070c7a900bc
:10251c00c0060700a07b2800d606070070c7a800dd
:10252c0083fe070030c8bf00634060000080fb00e2
:10253c00000f78001e007800e10f50000c003200f4
:10254c001e007800e20f5000120032001e007800ce
:10255c000000e000010032001a00370051418000f9
:10256c00d041800072c0b30096ff07001500370001
:10257c0061418000d041800062c0b30091ff070030
:10258c0041418000d041800052c0b3008dff070054
:10259c000c00370051418000d041800072c0b30064
:1025ac0088ff070061418000d041800062c0b30009
:1025bc0084ff070041418000d041800052c0b3002d
:1025cc0080ff070069fe07003088a9000080fa0030
:1025dc00000006001c00fa00300f9800410f980014
:1025ec003e089000200798005a013700c07c280054
:1025fc00a0060700e6004700a2c0b3002e00900022
:10260c00d3fe0700707d28009a0607002e0090006c
:10261c00fd06070000c2b300ad06070066004700c8
:10262c00104090000080fb00e2060700f0c2b300ef
:10263c00a706070066004700204090000080fb00c2
:10264c00dc060700007e28008a06070066004700ab
:10265c00104078000080fb00d606070000c2b300d3
:10266c009b06070066004700304090000080fb008e
:10267c00d006070000c2b3009506070066004700ad
:10268c00404090000080fb00ca060700a0c3b300c6
:10269c008f06070066004700504090000080fb004a
:1026ac00c4060700a0c3b3008906070066004700f4
:1026bc00604090000080fb00be06070000c2b30023
:1026cc008306070066004700704090000080fb0006
:1026dc00500f98005e089000e40f5000fe0032008e
:1026ec005e089000e40f50000a003c005e08900069
:1026fc00e20f5000e40032005e089000e20f500040
:10270c00cd003c005e089000e10f5000b600320096
:10271c00ff0037005e089000e60f500044003200c6
:10272c005e089000e60f5000040035005e08900033
:10273c00e70f50007b003200f5003700407e280088
:10274c004c06070066004700004890000080fb0024
:10275c00c800dd0066004700104890000080fb00b8
:10276c0000804000100798001e009000823e200060
:10277c00110009000280d800000f78001e007800bc
:10278c00a2002000110009000280d8008000fd008a
:10279c000043b0004e060700e0c2b3004c06070031
:1027ac001e00900042062000110009000280d80093
:1027bc00000f78001e007800a20020001100090014
:1027cc000280d8008000fd000043b00040060700e6
:1027dc001e009000a2002000110009000280d80009
:1027ec00000f78001e007800a200200011000900e4
:1027fc000280d8008000fd000043b00034060700c2
:10280c001e009000000f78001e007800a20020002f
:10281c00110009000280d8008000fd000043b000c8
:10282c002b06070060c5b30029060700c20037005d
:10283c00207f28000f060700660047000048900024
:10284c000080fb00c800dd006600470010489000c7
:10285c000080fb0000804000100798001e009000d4
:10286c00823e2000110009000280d800000f780081
:10287c001e007800a2002000110009000280d80080
:10288c008000fd000043b00011060700e0c2b30059
:10289c000f0607001e0090004206200011000900e0
:1028ac000280d800000f78001e007800a2002000e3
:1028bc00110009000280d8008000fd000043b00028
:1028cc00030607001e009000a20020001100090062
:1028dc000280d800000f78001e007800a2002000b3
:1028ec00110009000280d8008000fd000043b000f8
:1028fc00f70507001e009000000f78001e007800fe
:10290c00a2002000110009000280d8008000fd0008
:10291c000043b000ee05070060c5b300ec050700ee
:10292c008500370000802800d205070066004700ac
:10293c00004890000080fb00c800dd0066004700e6
:10294c00104890000080fb000080400010079800a9
:10295c001e00900042062000110009000280d800e1
:10296c00000f78001e007800a20020001100090062
:10297c000280d8008000fd000043b000d4050700a1
:10298c001e009000a2002000110009000280d80057
:10299c00000f78001e007800a20020001100090032
:1029ac000280d8008000fd000043b000c80507007d
:1029bc00e0c2b300c60507001e009000000f7800af
:1029cc001e007800a2002000110009000280d8002f
:1029dc008000fd000043b000bd05070030c4b3000b
:1029ec00bb0507005400370070802800a1050700c4
:1029fc0066004700004890000080fb00c800dd0026
:102a0c0066004700104890000080fb0000804000ea
:102a1c00100798001e0090000000e0000300320038
:102a2c00f08028009305070043003700b08228008f
:102a3c009005070040003700708028008d050700c6
:102a4c0066004700004890000080fb00c800dd00d5
:102a5c0066004700104890000080fb00008040009a
:102a6c00100798001e0090000000e00003003200e8
:102a7c00908428007f0507002f003700508628001f
:102a8c007c0507002c0037007080280079050700b2
:102a9c0066004700004890000080fb00c800dd0085
:102aac0066004700104890000080fb00008040004a
:102abc00100798001e0090000000e0000300320098
:102acc00308828006b0507001b003700f0892800b0
:102adc00680507001800370070802800650507009e
:102aec0066004700004890000080fb00c800dd0035
:102afc0066004700104890000080fb0000804000fa
:102b0c0010079800d08b28005a0507000a003700e0
:102b1c00008d28005705070066004700004890000c
:102b2c000080fb00a30507006600470010489000da
:102b3c000080fb009f050700d0c0b30064050700b0
:102b4c00a0c0b300620507002e009000700040008a
:102b5c0020079800ae0090004e089000808f500027
:102b6c00a2fe39000080fa00000006000200fa0004
:102b7c000040eb0010479800110037001e409000f9
:102b8c000080fb008000400000802000808040001e
:102b9c000000eb00800878001e4090000080fb00d5
:102bac0080004000a0812000808040000000eb00ed
:102bbc00800878001e4090000040e8001047980004
:102bcc001e409000e24f5000ecff36004006200003
:102bdc00304088004006200040408800400620001d
:102bec0050408800300020006040880030002000f9
:102bfc0070408800300020008040880000022000d7
:102c0c00304188000040eb00004f78000200370094
:102c1c00350707001e4fe80030c1b3009e4f10006f
:102c2c00fbff36000080fa00000006000000fa00ee
:102c3c002200200061042000700520002374200075
:102c4c008149780080497800824978007167a90031
:102c5c000000eb0000088800000420001008880029
:102c6c0020022800200888008460a9009460a80035
:102c7c000080fa00000006000400fa00000f780043
:102c8c007647a90070c7bf00614060000004e000f7
:102c9c00050032007007a9002d83a9002c23a90080
:102cac00c022a800c982a8000000eb00e01988002f
:102cbc00c13320009140780000c6b30000c0700002
:102ccc003ce3b7003c83a8003cc3bf00c040b3004a
:102cdc003ce3b70000302000f01988000000280009
:102cec00001988003de3a8001e007800100798002a
:102cfc001e009000e10f5000130032001e009000e7
:102d0c00e20f50001c0032001e0090000000e0009a
:102d1c000100320023003700cc62a900c862a90070
:102d2c000000000000000000000000000000000097
:102d3c0000000000c862a8002ca3a90050002000cd
:102d4c004019880017003700c422a900c022a9002e
:102d5c000000000000000000000000000000000067
:102d6c0000000000c022a8002c23a90010002000a5
:102d7c00401988000b003700c402a900c002a9004a
:102d8c000000000000000000000000000000000037
:102d9c0000000000c002a8002c03a9000000eb00fa
:102dac00401988003d23a80000000000000000002e
:102dbc000000000000000000000000003d23a900fe
:102dcc0085a0a9002023a8003c23a9003c03a8004f
:102ddc0000000000000000000000000000000000e7
:102dec0000000000000000003c03a9002023a90003
:102dfc0085c0bf000042b2000004e000fcff3200be
:102e0c0000188000c04088002023a90085a0a900dc
:102e1c002003a9001e007800c24080008000400002
:102e2c000080200000804000020878007647a8004f
:102e3c007007a8000080fa00000006000600fa00e7
:102e4c00000f7800304180000000e0000e003400dc
:102e5c00304180000000e900304188001e017800fc
:102e6c001e007800800040000080200000804000a0
:102e7c009001780082004100a08120000080400079
:102e8c0003087800b5003700304180000000e000f6
:102e9c0002003a000080eb00304188001e007800f0
:102eac0080004000008020000080400090017800ed
:102ebc001e00780080004000a081200000804000af
:102ecc00100178001e007800800040006080200017
:102edc00008040001000780000005100808f5100ed
:102eec00210031001e007800100798001e00900091
:102efc00e10f50000e0032001e009000e20f500057
:102f0c00120032001e0090000000e00001003200b0
:102f1c0035003700e04180000000e00001003a007d
:102f2c003088a80010002000e04188002e003700f7
:102f3c00f04180000000e00001003a003088a80059
:102f4c0010002000f041880027003700004280006c
:102f5c000000e00001003a003088a80010002000ba
:102f6c0000428800200037001e00780020079800df
:102f7c002e009000e10f50000e0032002e00900049
:102f8c00e20f5000120032002e0090000000e00012
:102f9c000100320014003700e04180000000e00026
:102fac00010032003088a8000000eb00e0418800ee
:102fbc000d003700f04180000000e00001003200fd
:102fcc003088a8000000eb00f041880006003700b4
:102fdc00004280000000e000010032003088a800b0
:102fec000000eb00004288001e00780080004000ca
:102ffc000080200000804000100178001e00780046
:10300c0080004000a081200000804000100078006b
:10301c00800f51000a0036001e0178001e00780057
:10302c00800040000080200000804000900178006b
:10303c0082004100a081200000804000030878003d
:10304c001e0078008000400020812000008040009d
:10305c0010007800f30f50000b003e009e0078002b
:10306c000181400020812000000041001000780008
:10307c000001e80081804000208120000080400099
:10308c0002087800060037001e007800800040001f
:10309c0020812000808040000000eb008008780038
:1030ac001e0078008000400020812000008040003d
:1030bc0010007800f40f500028003a009e017800b0
:1030cc001e00780080004000a0812000008040009d
:1030dc001000780042012000110009000280d80085
:1030ec0000017800838041000082200000804000b5
:1030fc00020878009e0178001e00780080004000d5
:10310c00a081200000804000100278001e00780092
:10311c0080004000008020000080400010007800fb
:10312c0042012000110009000280d8000001780043
:10313c001e007800800040000082200000804000cb
:10314c001000780000005100000142008380410013
:10315c00a081200000804000020878000080fa0066
:10316c00000006000c00fa00500798006000b80040
:10317c0030079800410798007647a90070c7bf0038
:10318c00614060000004e000050032007007a900f7
:10319c002d83a9002c23a900c022a800c982a80055
:1031ac000000eb00e0198800c1332000914078004a
:1031bc0000c6b30000c070003ce3b7003c83a8001d
:1031cc003cc3bf00c040b3003ce3b7000000eb00c1
:1031dc00f01988003fc3bf003040b3003fe3b70095
:1031ec0000002800001988005e009000401988003b
:1031fc003de3a8000000eb002007980034003700e6
:10320c002c23a900c422a900c022a90000000000a0
:10321c0000000000000000000000000000000000a2
:10322c002c23a800c022a8003d23a8000000000009
:10323c000000000000000000000000000000000082
:10324c003d23a90085a0a9002023a8003c23a900a8
:10325c003c03a8000000eb001007980003003700a7
:10326c001e0090000000e800100798001e0090005f
:10327c00e40f5000faff34003c03a9002023a900fe
:10328c0085c0bf000042b2000004e000fcff320029
:10329c002023a90085a0a90095a0a90000188000f2
:1032ac00000f78001e0078006101b9003e0090000c
:1032bc00ce0090000000410081804900300798004a
:1032cc00410798002e0090000000e80020079800ad
:1032dc00ae009000f00f2000808f5000c8ff34002b
:1032ec003e009000ce0090004809dd004800de0052
:1032fc0000007100c808de00504188007647a80025
:10330c007007a8000080fa00000006000200fa0016
:10331c007527a90022002000610420007005200000
:10332c002374200081497800804978008249780014
:10333c001e00780050052000303b8800a00a2000b9
:10334c00303b880027a6a8000000eb001031880055
:10335c00316220009140780030ccb30000c0600096
:10336c000034a00023e6b7000040eb0022e6b700d3
:10337c0023c6a90023e6a9002746a9000040eb00bc
:10338c0026e6b70027e6a90027a6a900fcc2bf00c5
:10339c006040b300fce2b7008bc0a9009bc0a90041
:1033ac00310c20009140780080cfb30000c0600049
:1033bc000024a000c3e0b7000080fa000000060063
:1033cc000200fa00004f780023e6a9009e40780026
:1033dc006fc060006f4060004201dd003162200070
:1033ec009140780030ccb30000c060000240700007
:1033fc0023e6b70023e6a8000080fa0000000600d0
:10340c000200fa001e00780050052000303b8800b6
:10341c00a00a2000303b880027a6a80027c6bf00c2
:10342c003040b30027e6b70020832000100078005e
:10343c00203188002083200010009000203188006b
:10344c002083200020009000203188002083200061
:10345c00300090002031880027a6a9000080fa00d7
:10346c00000006000000fa0027c6bf003040b30081
:10347c0027e6b70021318000208320000108780066
:10348c002131800020832000110098002131800020
:10349c00208320002100980021318000208320000f
:1034ac00310098000080fa00000006001000fa00bd
:1034bc0050c3b3000000fb006f0060004400dd004f
:1034cc008040780060c3b3006f40600000c07000a3
:1034dc0080407800208320006140980040c3b300f6
:1034ec000000fb006f0060004400dd0080407800ad
:1034fc0010c3b3006f40600000c0700080407800c3
:10350c00208320007140980010c3b3000000fb0022
:10351c006f0060004400dd008040780040c3b300c1
:10352c006f40600000c07000804078002083200055
:10353c004140980020c3b3000000fb006f00600006
:10354c004400dd008040780010c3b3006f40600081
:10355c0000c070008040780020832000214098003b
:10356c0010c3b3000000fb006f0060004400dd00de
:10357c008040780010c3b3006f40600000c0700042
:10358c00804078002083200001487800a0c4b3005c
:10359c000000fb0050079800a0042000de00900003
:1035ac00808f500027003200a00420005e019000a4
:1035bc00800f51000d003c0040042000de01900003
:1035cc00808f51007b00320060042000de009000f0
:1035dc00808f50003f003200100420005e019000ec
:1035ec00800f51005300320075003700e0042000ba
:1035fc00de019000808f51006a003200e004200050
:10360c00de009000808f500005003c00d0042000ac
:10361c005e019000800f51003200320068003700cc
:10362c00f0042000de019000808f51005900320020
:10363c0030052000de009000808f500051003200d9
:10364c005f00370050c7b3000000fb004007980034
:10365c00100620004e019000800f51000500320032
:10366c0050072000ce019000808f510005003200e1
:10367c00530037002183200010c0b300b0409800e5
:10368c004f003700c0c6b3000000fb0030079800a5
:10369c00c0062000be009000808f50000900320050
:1036ac00e00620003e019000800f51000100320026
:1036bc00430037002183200060c0b300b040980065
:1036cc003f0037002183200070c0b300b040980049
:1036dc003b0037002183200020c0b300b04098008d
:1036ec0037003700c0c6b3000000fb00200798006d
:1036fc0020072000ae019000808f510005003200a1
:10370c0090072000ae009000808f50000500320022
:10371c002b0037002183200030c0b300b04098004c
:10372c00270037002183200050c0b300b040980020
:10373c002300370050c7b3000000fb0010079800af
:10374c00000720001e019000800f51000500320080
:10375c00500720009e019000808f51000500320020
:10376c00170037002183200040c0b300b040980000
:10377c00130037002183200080c0b300b0409800b4
:10378c000f0037002183200090c0b300b040980098
:10379c000b0037002183200000c1b300b04098001b
:1037ac00070037002183200010c1b300b0409800ff
:1037bc00030037002183200020c1b300b0409800e3
:1037cc0060002000000f780020832000104078005b
:1037dc000080fb004400de000080fb006a00b900a2
:1037ec008000780020832000104078000080fb00cf
:1037fc006f006000008040001e0f400020832000fe
:10380c00104078000080fb004400de000080fb00cc
:10381c006a00b900800078002083200010407800f6
:10382c000080fb006f00600042002000811f7800c8
:10383c00110009000200d80001017800cf007800c7
:10384c00008040001e0f400020832000304090007c
:10385c000080fb006101b9000080eb008080eb0070
:10386c0002014000838148006207980073079800aa
:10387c0010012000010020006e019000fe0190005c
:10388c00800f5100818f590024003e006e00900083
:10389c00fe0090000060010020003700100037008f
:1038ac000f003700110037001300370014003700e9
:1038bc000e003700150037001600370017003700d0
:1038cc0016003700150037001400370013003700be
:1038dc001200370011003700010037000d003700cf
:1038ec009e007800638f40000c0037001e017800aa
:1038fc00660f4100090037001e0fe8000700370073
:10390c009e017800648f4100040037001e8fe80090
:10391c00020037001e007800650f40002083200055
:10392c00204090000080fb004400de000080fb0083
:10393c006a00b900800078002083200020409000ad
:10394c000080fb006f006000008040001e0f4000f4
:10395c001e00780072002000110009000200d8003f
:10396c008000fd00000f78001e0078008040780079
:10397c002083200051409800a1fe07000080fa002f
:10398c00000006000200fa00000f780027c6bf00f6
:10399c003040b30027e6b700213180001e007800cc
:1039ac0001087800213180001e0078001100980079
:1039bc00213180001e007800210098002131800008
:1039cc001e007800310098000080fa00000006000c
:1039dc000400fa0056f9070070c7a9008d01070012
:1039ec0070418000100798001e009000e10f5000fd
:1039fc00070032001e009000e10f50000a00390051
:103a0c001e009000e20f5000040032000800370046
:103a1c00402b28009701070005003700c02c280018
:103a2c009401070002003700802e28009101070046
:103a3c0030c8bf00634060000080fb00000f7800be
:103a4c001e007800e10f50000e0032001e007800be
:103a5c00e20f5000170032001e0078000000e0005a
:103a6c000100320023003700f02f280081010700ed
:103a7c00d0418000700050007100200053000700fe
:103a8c001c003700d03128007a010700d14180009a
:103a9c0000fe2f0000804000610020004b0007005a
:103aac00d0418000700050005100200047000700fa
:103abc0010003700b03328006e010700d1418000a0
:103acc0000fd2f0000804000710020003f00070027
:103adc00d141800000fe2f000080400061002000da
:103aec003a000700d04180007000500051002000c7
:103afc0036000700f03628005e0107001bf90700ae
:103b0c0070c7a8000080fa00000006000200fa004e
:103b1c0030c8bf00634060000080fb00000f7800dd
:103b2c001e007800e10f50000a0032001e007800e1
:103b3c00e20f50000a0032001e0078000000e00086
:103b4c000100320008003700203728004901070027
:103b5c0005003700603928004601070002003700d5
:103b6c00a03b2800430107000080fa00000006007b
:103b7c000200fa0070418000000f78001e007800ef
:103b8c00e10f5000070032001e007800e10f5000da
:103b9c000a0039001e007800e20f500004003200c9
:103bac0008003700103f28003201070005003700dd
:103bbc00504128002f01070002003700e043280085
:103bcc002c0107000080fa00000006000800fa0033
:103bdc0010079800210798001046280025010700bf
:103bec0010472800230107001e00900086010700e3
:103bfc0000c2b30036010700208320003040900043
:103c0c000080fb006b010700f0c2b300300107001d
:103c1c0020832000204090000080fb0065010700fd
:103c2c00a0472800130107002083200010407800d3
:103c3c000080fb005f01070000c2b30024010700f5
:103c4c0020832000504090000080fb0059010700a9
:103c5c0000c2b3001e0107002083200040409000ea
:103c6c000080fb0053010700a0c3b300180107003c
:103c7c0020832000704090000080fb004d01070065
:103c8c00a0c3b30012010700208320006040900005
:103c9c000080fb004701070000c2b3000c010700c5
:103cac002e009000300798003e009000e30f50006b
:103cbc00af0032003e009000e30f500007003e00c2
:103ccc003e009000e10f50009e0032003e0090003c
:103cdc00e20f5000b1003200bb0037003e009000f4
:103cec00e60f50003b0032003e009000e70f500002
:103cfc006c0032003e009000e50f500001003200d5
:103d0c00b1003700e0472800da000700404180008e
:103d1c00823e2000110009000280d800000f7800bc
:103d2c001e007800a2002000110009000280d800bb
:103d3c008000fd000043b000e5000700e0c2b300c6
:103d4c00e3000700404180004206200011000900fa
:103d5c000280d800000f78001e007800a20020001e
:103d6c00110009000280d8008000fd000043b00063
:103d7c00d700070040418000a2002000110009007c
:103d8c000280d800000f78001e007800a2002000ee
:103d9c00110009000280d8008000fd000043b00033
:103dac00cb00070040418000000f78001e00780017
:103dbc00a2002000110009000280d8008000fd0044
:103dcc000043b000c200070060c5b300c00007008c
:103ddc007f003700c0482800a60007006041800023
:103dec00823e2000110009000280d800000f7800ec
:103dfc001e007800a2002000110009000280d800eb
:103e0c008000fd000043b000b1000700e0c2b30029
:103e1c00af0007006041800042062000110009003d
:103e2c000280d800000f78001e007800a20020004d
:103e3c00110009000280d8008000fd000043b00092
:103e4c00a300070060418000a200200011000900bf
:103e5c000280d800000f78001e007800a20020001d
:103e6c00110009000280d8008000fd000043b00062
:103e7c009700070060418000000f78001e0078005a
:103e8c00a2002000110009000280d8008000fd0073
:103e9c000043b0008e00070060c5b3008c00070023
:103eac004b003700a04928007200070050418000e9
:103ebc0042062000110009000280d800000f780093
:103ecc001e007800a2002000110009000280d8001a
:103edc008000fd000043b0007d00070050418000d1
:103eec00a2002000110009000280d800000f780009
:103efc001e007800a2002000110009000280d800ea
:103f0c008000fd000043b00071000700e0c2b30068
:103f1c006f00070050418000000f78001e007800f1
:103f2c00a2002000110009000280d8008000fd00d2
:103f3c000043b0006600070030c4b3006400070003
:103f4c0023003700104a28004a000700e041800097
:103f5c000000e00003003200904a280045000700f2
:103f6c001b003700504c2800420007001800370097
:103f7c00104a28003f000700004280000000e000cb
:103f8c0003003200304e28003a00070010003700c2
:103f9c00f04f2800370007000d003700104a2800aa
:103fac0034000700f04180000000e0000300320004
:103fbc00d05128002f00070005003700905328002f
:103fcc002c0007000200370070552800290007005c
:103fdc00d0c0b3003e000700a0c0b3003c000700f7
:103fec000080fa00000006000200fa0087c0bf0043
:103ffc000044b2000004e000fcff3200b01180006d
:10400c00004f780087c0a9001e00fb000080fa005a
:10401c00000006000000fa0031e2a8000000eb00ee
:10402c00c01188003062a8003082a80033c2a800fa
:10403c003342a80087c0a9000080fa0000000600e7
:10404c000200fa0087c0bf000044b2000004e00088
:10405c000300320010002000000f7800020037002f
:10406c000000eb00000f78001e0078000080fa00c2
:10407c00000006000600fa00100798000200370046
:10408c001e407800120007001e00900010407800bf
:10409c00004f78001e407800404798004e4090003a
:1040ac000004e0000200320010c0b300404798004a
:1040bc004e4090009e0090008100e800110798008f
:1040cc000004e000eeff3a000080fa000000060059
:1040dc000200fa00004f78001e00fb00a0118800bf
:1040ec000000000033c2bf00614060000004e0002b
:1040fc00fcff32000080fa00000006000400fa0009
:10410c00204798002e409000004f780030c6b30036
:10411c009e4f1000060036001e80fb004206200059
:10412c00110009000280d8000043b000e8ff07002e
:10413c009e4178001e80fb00420620001100090001
:10414c000280d8008080fb00400620000088b90067
:10415c0000c05100004f780090c0b3009e4f10007b
:10416c00060036001e80fb00a20020001100090092
:10417c000280d8000043b000d5ff07009e417800b4
:10418c001e80fb00a2002000110009000280d80054
:10419c000080fb006a00b90000c05100004f78009d
:1041ac001e4078000043b000c9ff07000080fa00f1
:1041bc00000006000400fa00100798001e00900092
:1041cc00000f78001e0090004480de006f0060003d
:1041dc00100798009e0090006096280061407800bf
:1041ec00bbff07009e0078006f80600010079800ee
:1041fc009e0090006096280061407800b4ff070094
:10420c000080fa00000006000400fa001007980075
:10421c001e0090004c00de006f0f60009e007800c6
:10422c006096280061407800a9ff07001e009000ee
:10423c004800de006f0f60009e007800609628003a
:10424c0061407800a2ff07001e0090004400de00d1
:10425c006f0f60009e007800609628006140780027
:10426c009bff07001e0090006f0f60009e007800ff
:10427c00609628006140780095ff07000080fa00e6
:10428c00000006000800fa0020079800310798008b
:10429c002e009000be0090004c08de0001002000b3
:1042ac006f006000000feb003e177800010020004b
:1042bc001e1f70001e9770001e00be006296280024
:1042cc00000041001040780081ff07002e00900094
:1042dc00be0090004808de00010020006f00600066
:1042ec00000feb003e177800010020001e1f70002d
:1042fc001e9770001e00be00629628000000410050
:10430c001040780072ff07002e009000be00900055
:10431c004408de00010020006f006000000feb007d
:10432c003e177800010020001e1f70001e977000c1
:10433c001e00be006296280000004100104078006c
:10434c0063ff07002e009000be0090004008de00c6
:10435c00010020006f006000000feb003e1778009a
:10436c00010020001e1f70001e9770001e00be0072
:10437c0062962800000041001040780054ff0700ae
:10438c002e009000be0090004409dd004c00de00c1
:10439c0000007100cc08de006f006000000feb0025
:1043ac003e177800010020001e1f70001e97700041
:1043bc001e00be00629628000000410010407800ec
:1043cc0043ff07002e009000be0090004809dd005e
:1043dc004800de0000007100c808de006f006000bd
:1043ec00000feb003e177800010020001e1f70002c
:1043fc001e9770001e00be0062962800000041004f
:10440c001040780032ff07002e009000be00900094
:10441c004c09dd004400de0000007100c408de0021
:10442c006f006000000feb003e17780001002000c9
:10443c001e1f70001e9770001e00be0062962800a2
:10444c00000041001040780021ff07002e00900072
:10445c00be0090006f006000000feb003e1778006c
:10446c00010020001e1f70001e9770001e00be0071
:10447c0062962800000041001040780014ff0700ed
:10448c000080fa00000006000400fa00004f7800db
:10449c0060c6b3009e4f1000030034000000eb0018
:1044ac00100798002600370000c6b3009e4f10007e
:1044bc000500340090cab3001e4040000000fb0011
:1044cc00100798001e00370060c4b3009e4f100008
:1044dc00030034000000eb001007980018003700b0
:1044ec0000c4b3009e4f10000500340090ccb30004
:1044fc001e4040000000fb00100798001000370021
:10450c0090c3b3009e4f1000030034000000eb007a
:10451c00100798000a003700f0c2b3009e4f10003d
:10452c000500340000cdb3001e4040000000fb002d
:10453c0010079800020037000000eb0010079800ed
:10454c001e0090000080fa00000006000600fa0031
:10455c00204798002e4090006f4f600090c0b30031
:10456c009e4f10000500340071c3b3001ec0400004
:10457c000000fb00200798000400370001c3b300c3
:10458c001ec040000000fb00200798002e00900089
:10459c000080fa00000006000000fa0032c2bf00e2
:1045ac00624060000004e000010032003222a900e9
:1045bc000080fa00000006000000fa0070c7bf007f
:1045cc00614060000004e000070032007007a900a1
:1045dc000080eb00601988002d83a9002c23a90012
:1045ec00c022a800c982a800000e2800001988006b
:1045fc000000eb00101988000070200020198800c2
:10460c000080fa00000006000400fa002047980021
:10461c0031479800e8ff07003e4090000080fb0007
:10462c004800dd00201988002e4090000080fb001f
:10463c00401988002023a80095a0a800a10a2000fa
:10464c0091407800f0c8b30000c060000044a000a6
:10465c00aae0b70085a0a900010037000140fe00c8
:10466c0085c0bf000042b2000004e000fbff320036
:10467c002023a90085a0a90095a0a90000188000fe
:10468c00000f78007007a8001e0078000080fa0068
:10469c00000006000200fa0030c8bf00684060004d
:1046ac000004e0000500320070c7a90059fe0700a5
:1046bc00209528006ffe070070c7a80030c8bf0007
:1046cc00634060000080fb00000f78001e00780043
:1046dc00e10f5000090032001e007800e20f50007c
:1046ec00080032001e0078000000e00001003200db
:1046fc0006003700200007000400370055000700b3
:10470c00020037001c000700520007003088a80088
:10471c003048a9000080fa00000006000000fa00f2
:10472c0061198000f0ff270000806000601988008c
:10473c004006200056f50700f1c1b300f0c0b300ed
:10474c00b1ff07006041880061198000000028005b
:10475c000080700060198800604180006101b80021
:10476c0000802e00210120006cef070060418800c2
:10477c000080fa00000006000400fa00889fbe00ca
:10478c00f1c1b30010c0b3009fff07005041880077
:10479c00604180006104b800504180006103b800a2
:1047ac008800780006007800000ab80007c0b9003d
:1047bc00050178000001410009b0b9000001410079
:1047cc0082027800048fbe001e00be00e00f500075
:1047dc00e08f580004003d001e01be00f23fb00007
:1047ec000380b000028fbe001e01be00461add0021
:1047fc004a10de0000007200ca98de000003be0002
:10480c0086007800a0002000000ab8006030b900d3
:10481c0005017800000141006a38b900000141002f
:10482c0082027800040078005041880051418000d9
:10483c0080c72e0000804000a2002000110009005b
:10484c000280d800504188004f04be000080fa005e
:10485c00000006000400fa00889fbe00f1c1b300fe
:10486c00c0c0b30068ff0700404188006041800071
:10487c006104b800404180006103b80088007800f2
:10488c0006007800000ab80007c0b90005017800de
:10489c000001410009b0b90000014100820278001a
:1048ac00048fbe001e00be00e00f5000e08f5800c9
:1048bc0004003d001e01be00f23fb0000380b000ba
:1048cc00028fbe001e01be00461add004a10de003b
:1048dc0000007200ca98de00404188004f04be0000
:1048ec000080fa00000006000200fa000040eb0015
:1048fc00004f78000800370010c0b3009e4f100026
:10490c00040032001e80fb00dbf807001e80fb0059
:10491c004af907001e4fe80020c0b3009e4f10005c
:10492c00f5ff3600e04180000000e00006003a0090
:10493c00f04180000000e00003003a0000428000db
:10494c000000e00003003200c9e2a900cde2a9009a
:10495c0002003700cde2a800c9e2a80030c8a900c7
:10496c000080fa00000006000000fa00c8e2a8006f
:10497c006ae0a8008200a8008400a900410a200077
:10498c009140780080cfb30000c060000024a000ec
:10499c00a4e0b7009400a8000080fa000000060014
:1049ac000000fa009400a9008400a900c8e2a90044
:1049bc006ae0a9000080fa00000006000000fa007e
:1049cc00c9c2a8006980a8008660a900d10a20008d
:1049dc0091407800f0c8b30000c0600001c4b3007f
:1049ec0001407000ade0b7006180a8009660a8009f
:1049fc000080fa00000006000000fa006180a900a7
:104a0c009660a9008660a900c9c2a9006980a900a6
:104a1c000080fa00000006000000fa008400a900e3
:104a2c009400a9008660a9009660a900c8e2a800bd
:104a3c006ae0a800c9c2a8006980a8005000200044
:104a4c0093f40700cac2bf000080fb004700de00e1
:104a5c000004a20046e8b700cbc2bf000080fb00f8
:104a6c004600de00614060000004a20047e8b70089
:104a7c000000eb00104288000000eb002042880090
:104a8c00170037006ae0a9006980a90040062000e1
:104a9c00a8f407006ae0a8006980a8005000200074
:104aac007bf40700cac2bf0001c8b300014060001c
:104abc000004e00003003a00104280000000e8000f
:104acc0010428800cbc2bf000044b2000004e000da
:104adc0003003a00204280000000e80020428800d9
:104aec00cbc2bf000044b2000004e000e5ff32007e
:104afc00cac2bf0001c8b300014060000004e0005e
:104b0c00e0ff32006ae0a9006980a9000080fa0089
:104b1c00000006000000fa0030c8bf0068406000ca
:104b2c000004e0000200320070c7a90039fd070044
:104b3c0046c8bf000004e0002200320047c8bf0096
:104b4c000004e0001f003a00c902a900cd02a90030
:104b5c0030c8bf00684060000004e0000200320072
:104b6c00c08d280043fd07003048a800104280008b
:104b7c00f30f50001000360030c8bf0063406000d7
:104b8c000040e80063406000634160000183200046
:104b9c0091407800c0cfb30000c0600002407000ac
:104bac0030e8b70030c8bf00684060000004e00087
:104bbc0001003200d5fb0700cd02a800c902a800f5
:104bcc004500370047c8bf000004e0004200320037
:104bdc00c9e2a900cde2a90030c8bf00684060005e
:104bec000004e00002003200208f280021fd0700a5
:104bfc0010428000f30f50000e003600204280005f
:104c0c00f30f50000b003600c9f4070070c7a90061
:104c1c0000fd07008090280016fd0700d1418000a0
:104c2c000000eb006bf607000092280011fd070056
:104c3c002700370020428000f30f50000e00360092
:104c4c00704180000000e8007041880070418000d5
:104c5c00e20f5000020036000000eb0070418800ab
:104c6c0030c8bf00684060000004e000180032004b
:104c7c00bffb07001600370030c8bf000080fb00e8
:104c8c004300de00614060000004a200614060004f
:104c9c00614060004301dd000183200091407800f9
:104cac0070cfb30000c060000240700030e8b70065
:104cbc0030c8bf00684060000004e000040032000f
:104ccc0070c7a900d3fc070090932800e9fc0700eb
:104cdc00cde2a800c9e2a80070c7a80030a8a900be
:084cec000080fa000000060040
:020000040000fa
:104cf4000008000028000000000000004208000036
:104d040006000000000000003a080000080000004f
:104d1400020000000000000000000000000000008d
:104d2400280800001200000000000000000000003d
:00000001FF
